:020000040800F2
:100000002806002005010008DF1A00086714000810
:10001000DD1A0008C7010008ED26000800000000F6
:10002000000000000000000000000000452600085D
:10003000C901000800000000E11A00084726000876
:100040001F0100081F0100081F0100081F01000810
:100050001F0100081F0100081F0100081F01000800
:100060001F0100081F0100081F0100081F010008F0
:100070001F0100081F0100081F0100081F010008E0
:100080001F0100081F0100081F0100081F010008D0
:100090001F0100081F0100081F0100081F010008C0
:1000A0001F0100081F0100081F0100081F010008B0
:1000B0001F0100081F0100081F0100081F010008A0
:1000C0001F0100081F0100081F0100081F01000890
:1000D0001F0100081F0100081F0100081F01000880
:1000E0001F010008E51A00081F010008DFF810D002
:1000F00000F02CF800480047A5280008AFF3008066
:10010000280600200648804706480047FEE7FEE72D
:10011000FEE7FEE7FEE7FEE7FEE7FEE7FEE7FEE7B7
:10012000A5260008ED000008D2B201E000F8012B7E
:10013000491EFBD270470022F6E710B513460A4667
:1001400004461946FFF7F0FF204610BD064C074D48
:1001500006E0E06840F0010394E807009847103497
:10016000AC42F6D3FFF7C6FF0C2900082C29000883
:1001700070B58C1810F8015B15F0070301D110F869
:10018000013B2A1106D110F8012B03E010F8016B96
:1001900001F8016B5B1EF9D12B0705D40023521E19
:1001A0000DD401F8013BFAE710F8013BCB1A921C81
:1001B00003E013F8015B01F8015B521EF9D5A1427F
:1001C000D8D3002070BDFEE77047000010B5054C85
:1001D000012020600448C08B00F008F84FF4803004
:1001E000206010BD100801400000002070B50446DA
:1001F00000F004F90546601C02D00448007804446D
:1002000000F0FCF8401BA042FAD370BD5001002062
:100210002DE9F84FDFF8B891002409F1040A0AF13A
:10022000040B23460F270BF1040EC9E00125A5405E
:100230002A40AA427DD1674ED1F804C0ACEB060833
:10024000B44532D014DCBCF1030F3AD009DCBCF168
:10025000000F2AD0BCF1010F1CD0BCF1020F31D12C
:100260001DE0BCF1110F17D0BCF1120F2AD119E01B
:10027000B8F5881F19D006DCB8F5803F15D0B8F561
:10028000801F1FD111E0B8F5001F0ED0B8F5041F74
:1002900018D10AE0CB6815E0CB681B1D12E0CB68D3
:1002A00008330FE0CB680C330CE08B682BB1012BCB
:1002B0004FF0080303D0456104E0042302E0056128
:1002C00000E00023FF2A01D8064601E000F1040601
:1002D0004FEA840501D9A5F12005D6F8008007FA78
:1002E00005FC28EA0C0803FA05F548EA0508C6F8F3
:1002F00000804D68ED0062D5374DAE6946F00106CD
:10030000AE61AD6924F0030605F001050095334D9B
:1003100006EB050CDCF80850A607360F07FA06F8BE
:1003200025EA0805DFF8B880404503D14FF0000802
:1003300017E044E0DFF8AC80404502D14FF00108FF
:100340000FE0DFF8A480404502D14FF0020808E03A
:10035000DFF89880404502D14FF0030801E04FF0EC
:10036000040808FA06F848EA0508CCF808804D6841
:10037000D9F80060ED034D4601D5164300E09643E1
:100380002E604D68DAF80060AD03554601D516437E
:1003900000E096432E604D68DBF80060ED025D469C
:1003A00001D5164300E096432E604D68DEF80060EC
:1003B000AD02754601D5164300E096432E60641CDD
:1003C0000D682A46E5407FF431AFBDE8F88F0000A4
:1003D0000004014000001110001002400000014024
:1003E00000080140000C01400010014000140140D1
:1003F0000AB1016170470904FBE700000148806809
:10040000704700005001002070B504001BD094F824
:100410003D00002520B984F83C50204600F044F906
:10042000242084F83D002068016821F0010101606A
:1004300000F080FB4D4A6168914201D84C4900E0D0
:100440004C49884201D2012070BD4B492368B0FB62
:10045000F1F15E6826F03F060E435E6063689342EA
:1004600006D94FF4967359434FF47A73B1FBF3F105
:100470002368491C1E6A26F03F06314319626168F1
:10048000914210D84900401EB0FBF1F2521CC2F359
:100490000B02042A01D2042022E0B0FBF1F0401C40
:1004A000C0F30B001CE0A368F3B301EBC10202EB45
:1004B0000116421EB2FBF6F2521C42F480421205B3
:1004C00049D093B301EBC10202EB0111401EB0FB16
:1004D000F1F0401CC0F30B0040F4804040F40040B9
:1004E0002168CA694CF6FF739A431043C861D4E986
:1004F0000701084321680A6822F0C002104308601F
:10050000D4E9030101432068826848F2FF339A432B
:1005100011438160D4E9050108432168CA6822F0CB
:10052000FF021043C86001E00EE016E02068016899
:1005300041F0010101602564202084F83D0025631D
:1005400084F83E50002070BD01EB4106421EB2FB14
:10055000F6F2521CB3E70120C2E701EB4101401E55
:10056000B0FBF1F0401CC0F30B00B7E7A086010020
:1005700080841E0000093D0040420F002DE9F84F25
:100580001F4690468A460446DDF82890FFF736FF5E
:10059000054694F83D0020287FD1192301224049C7
:1005A0002046009500F0E2FF002876D194F83C0048
:1005B000012872D0012084F83C0020680168C90736
:1005C00003D1016841F0010101602068016821F454
:1005D00000610160212084F83D00102084F83E0075
:1005E00000262664C4F824806785608D20852D4808
:1005F000E0622B464A465146204600F04DFF90B936
:10060000206841698069009036E02A4649462046C4
:1006100001F02BF850B1206C042804D12068016847
:1006200041F4007101600120BDE8F88F606A216823
:1006300000780861606A401C6062618D491E6185B6
:10064000218D491E89B2218522685369DB435B07EE
:100650000BD451B100781061606A401C6062608DFB
:10066000401E6085208D401E20852A464946204632
:1006700000F056FF0028CED1208D0028C5D154F8B7
:100680003D0B016841F400710160202004F81E094F
:10069000E67766770020C7E7FFE70220C4E700009F
:1006A000020010000000FFFF10B586B0002100918D
:1006B00001910291039100681349884222D1134CA1
:1006C000A06940F00800A061A069694600F0080038
:1006D00004904FF44070009012200190032003908A
:1006E0000B48FFF795FD0B48416841F0E06141F090
:1006F00002014160E06940F40010E061E06900F44B
:100700000010049006B010BD0054004000100240DC
:10071000000C014000000140024881680278114449
:100720008160704750010020074810B5016841F012
:1007300010010160032000F075F8002000F006F8B9
:1007400000F024F8002010BD0020024070B50D4DCF
:1007500004464FF47A712878B1FBF0F00A49096831
:10076000B1FBF0F000F06BFE48B9102C07D200226C
:100770002146501E00F036F800206C6070BD01204C
:1007800070BD0000500100205C0100200C4808B53D
:10079000816941F001018161816901F001010091EC
:1007A000C16941F08051C161C06900F08050009082
:1007B0000448416821F0E06141F08061416008BD7A
:1007C0000010024000000140002809DB00F01F0279
:1007D000012191404009800000F1E020C0F80011A3
:1007E00070470000F0B40E4B1B680C46C3F30223A5
:1007F000C3F10705042D00D90425191D072901D2CD
:10080000002300E0DB1E012606FA05F1491E214007
:1008100099409E40761E16403143F0BC01F067BF00
:100820000CED00E0064900F0070208684FF6FF03F0
:10083000184040EA0220034A104308607047000055
:100840000CED00E00000FA05014901200862704744
:1008500000000E4210B529A401461DCC86B08DE8DB
:100860001D002AA02A4C006804900020012923D0F2
:1008700002293AD010291DD161682268D20119D508
:10088000C1F38342C9031DF8020009D5616804AAB7
:10089000C1F34041515C1F4AB2FBF1F1484301E012
:1008A0001D4948436168490204D440005FF00301D8
:1008B000B0FBF1F006B010BD226AC2F3012101299C
:1008C00003D1920701D5C803F4E7022905D1626A72
:1008D000920702D549F64040ECE70329EAD12168A6
:1008E0008903E7D54FF22440E4E700F033F961686B
:1008F000C1F38131491C4900DAE700000203040515
:10090000060708090A0B0C0D0E0F1010010200005B
:100910000010024000127A0000093D002DE9F84362
:1009200005460078354CC00754D0E0690026C00069
:1009300008D4E06940F08050E061E069012600F0F1
:10094000805000902E480168C90512D40168804685
:1009500041F480710160FFF751FD074605E000BFDB
:10096000FFF74CFDC01B642823D8D8F80000C00551
:10097000F6D5206A10F4407021D0A98801F44071A6
:1009800081421CD0206A1F49012220F440700A6075
:1009900000220A602062C00711D0FFF72FFD074632
:1009A00041F2883808E000BFFFF728FDC11B414530
:1009B00002D90320BDE8F883206A8007F4D5206AB5
:1009C000696820F44070084320621EB1E06920F09D
:1009D0008050E0612878800705D56068A96820F418
:1009E0004040084360602878C00605D56068E96823
:1009F00020F48000084360600020DBE70010024024
:100A000000700040400442422DE9F0470F460500C7
:100A100061D0434E306800F00700B84209D2306818
:100A200020F0070038433060306800F00700B8421B
:100A300051D128683B4C810712D5400703D5606827
:100A400040F4E06060602878000703D5606840F4F7
:100A5000605060606068A96820F0F0000843606042
:100A60002878C00728D06868012810D0216802289B
:100A700010D0890700292EDA616821F003010143B3
:100A80006160FFF7BBFC804641F288390DE02168C8
:100A90008903EFE78901EDE7FFF7B0FCA0EB080160
:100AA000494502D90320BDE8F0876068696800F015
:100AB0000C00B0EB810FEFD1306800F00700B842B6
:100AC0000BD9306820F0070038433060306800F000
:100AD0000700B84201D00120E5E72878400705D596
:100AE0006068E96820F4E0600843606028780007E7
:100AF00006D56068296920F4605040EAC100606052
:100B000000F038F86168084AC1F30311515CC8402D
:100B10000649086006480068FFF718FE0020C2E793
:100B20000020024000100240F42800085C01002070
:100B3000540100200448054900684968044AC1F38B
:100B40000221515CC84070475C0100200010024047
:100B5000042900080448054900684968044AC1F3AB
:100B6000C221515CC84070475C0100200010024067
:100B70000429000812A185B00FC98DE80F0014A048
:100B8000144A006804905168134801F00C03042BC8
:100B900010D0082B0ED1C1F38343C9031DF8030005
:100BA0000AD5516804AAC1F34041515C0A4A504336
:100BB000B0FBF1F005B0704708494843FAE7000080
:100BC00002030405060708090A0B0C0D0E0F10108E
:100BD000010200000010024000127A0000093D00EE
:100BE0002DE9F84F040070D02078C04DC00749D0DF
:100BF0006868C0F38100012807D06868C0F38100ED
:100C0000022809D16868C00306D52868800339D551
:100C100060680028E7D035E06068B0F5803F0BD011
:100C200010B1B0F5A02F11D0286820F480302860D2
:100C3000286820F4802002E0286840F48030286092
:100C4000606890B1FFF7DAFB06460AE0286840F4D6
:100C500080202860F0E700BFFFF7D0FB801B6428EE
:100C600073D828688003F7D50CE0FFF7C7FB06466A
:100C700005E000BFFFF7C2FB801B6428F0D828689E
:100C80008003F7D420789A4E80074FF001094FF087
:100C9000000839D5686810F00C0F07D06868C0F3F9
:100CA0008100022809D16868C00306D4286880073B
:100CB00014D52069012808D110E02069B0B1C6F828
:100CC0000090FFF79BFB074605E00AE1FFF796FB64
:100CD000C01B0228C4D828688007F7D52868616936
:100CE00020F0F80040EAC10028600DE0C6F800805E
:100CF000FFF784FB074604E0FFF780FBC01B0228D8
:100D000023D828688007F7D4207800072CD57948A5
:100D1000A169D9B1C0F80090FFF770FB074604E065
:100D2000FFF76CFBC01B02280FD8686A8007F7D555
:100D300071484FF4FA510068B0FBF1F0009000BF29
:100D40000098411E0091FAD20EE080E0C0F80080C9
:100D5000FFF754FB074604E0FFF750FBC01B0228D7
:100D600075D8686A8007F7D42078400760D5E869AD
:100D70000027C00008D4E86940F08050E861E869C5
:100D8000012700F0805000905C480168C90513D429
:100D90000168834641F480710160FFF72FFB8246B2
:100DA00006E000BFFFF72AFBA0EB0A0064284ED83C
:100DB000DBF80000C005F5D5E06801280AD008B1CD
:100DC000052813D0286A20F001002862286A20F044
:100DD000040002E0286A40F001002862E06841F265
:100DE000883B98B1FFF70AFB82460BE0286A40F087
:100DF00004002862EEE700BFFFF700FBA0EB0A014A
:100E000059455AD8286A8007F6D50CE0FFF7F6FA5C
:100E1000824605E0FFF7F2FAA0EB0A0159454CD8EB
:100E2000286A8007F6D41FB1E86920F08050E86195
:100E3000E06988B36968C1F38101022944D00228BE
:100E4000C6F8608004D0FFF7D9FA044638E034E0F1
:100E5000FFF7D4FA074604E0FFF7D0FAC01B0228D8
:100E60002BD828688001F7D4206AB0F5803F05D1DF
:100E70006868A16820F4003008436860D4E908017C
:100E80000843696821F4741108436860C6F86090EB
:100E9000FFF7B4FA044606E025E000BFFFF7AEFA1C
:100EA000001B022809D828688001F7D51BE000BF85
:100EB000FFF7A4FA001B022802D90320BDE8F88F2F
:100EC00028688001F4D40EE00128F7D06868226A0F
:100ED00000F48031914204D1616A00F470108842BC
:100EE00001D00120EAE70020E8E7000000100240FE
:100EF00000004242800442425C0100200070004039
:100F00007047000010B5044600680168890709D5DC
:100F10004068800706D52046FFF7F2FF21686FF092
:100F20000200486003494FF40030086001206074FB
:100F300010BD00001404014070B51D460C4660B39E
:100F40005CB300F076FE4FF46161B0FBF1F2182360
:100F5000B2FBF3F603FB1622B0FBF1F301FB130621
:100F60003C23B6FBF3F622706670B0FBF1F601FB92
:100F70001600B0FBF3F103FB1100A0705DB1104649
:100F800000F0BFFD2070607800F0BBFD6070A078BD
:100F900000F0B7FDA070002070BD012070BDF8B555
:100FA00005004FF0000016460C46009006D02CB10C
:100FB00000226946284600F019F808B10120F8BD62
:100FC000287B2070E87BE070697B6170A97BA17051
:100FD00056B100F096FDE070607800F092FD607010
:100FE000A07800F08EFDA0700020F8BD2DE9F0473C
:100FF00091460C465FEA00084AD084B3D8F8000056
:101000004068400744D4404600F01AFE4FF4616245
:101010000546B0FBF2F1B0FBF2F302FB13503C23A8
:10102000B0FBF3F0B5FBF2F6607002FB1650B0FBBC
:10103000F3F203FB1200A070182931D31820B1FB82
:10104000F0F7B1FBF0F200FB12102070404600F008
:10105000F0FD411C04D0A84202D9461B02E017E073
:101060004FF0FF36A7EB071000EB4000C0EB00107D
:1010700005EBC0152946404600F031FE40B9701C12
:1010800001D0711900E03146404600F014FE10B165
:101090000120BDE8F0873946404600F03DFD00E004
:1010A0002170B9F1000F0BD0207800F02AFD2070DC
:1010B000607800F026FD6070A07800F022FDA0703E
:1010C0000020E6E770B5040003D0607C002610B174
:1010D00005E0012070BD2674204600F043F8022090
:1010E0006074204600F08EF9042578BB204600F09D
:1010F0006AFD58BB2068416821F007014160A06883
:1011000020B11748016821F0010101601448001F57
:101110000168A26821F46071114301606068411C9C
:1011200004D10120FFF796FB80B1401E21688A6838
:1011300022F00F0242EA10428A602168CA6860F316
:101140000F02CA60204600F059FD08B16574C0E77F
:10115000E67301206073A0736074002070BD00000E
:10116000306C004008B500680D49884217D1FFF780
:101170006BFB0C48C16941F00061C161C0690A495B
:1011800000F0006000900120086000221146292034
:10119000FFF728FBBDE808402920FFF715BB08BD75
:1011A00000280040001002403C0442422DE9F84370
:1011B0004FF0000617460D46040000960FD075B19B
:1011C000207C01280ED04FF0010984F810900220F5
:1011D0006074002269462046FFF708FF20B1012015
:1011E000BDE8F8830220FBE79DF800004FF4616141
:1011F00048439DF80110C1EB011100EB81009DF8FF
:10120000021000EB01082878E7B100F071FC4FF400
:10121000616100FB01F7687800F06AFCC0EB001028
:1012200007EB8007A87800F063FC3918414501D22C
:1012300016480144204600F03EFD70B10420607461
:101240002674CCE74FF4616148436978C1EB011122
:1012500000EB8100A9780144E8E721686FF0020003
:1012600048602068016841F0020101600848016897
:1012700041F40031016006480830016841F4003152
:10128000016084F8119026740020A9E780510100C4
:10129000000401402DE9F0410D4604003BD0C5B3E8
:1012A000207C01283AD04FF0010884F810800220F9
:1012B0006074E87872B300F01BFCE073687800F0AB
:1012C00017FC6073A87800F013FCA073C2B2617BB6
:1012D000E07B00F0C5FC20732870204600F0B0FCD5
:1012E0004FF46161B0FBF1F1002518292DD91822C6
:1012F000B1FBF2F1A1EB011101EB4101C1EB0111D5
:1013000000EBC1163146204600F0E9FC0427C8B9BD
:101310000BE000E004E00120BDE8F0810220FBE7E3
:10132000E07368786073A878CFE7204600F081FC0E
:10133000411C0AD0B04208D206490144204600F0C0
:10134000BAFC10B167742574E5E784F81180257440
:101350000020E1E7805101002DE9F0410D46040035
:1013600024D01DB3207C012823D04FF0010884F83D
:101370001080022060742878EAB100F0B9FB4FF4C5
:10138000616100FB01F6687800F0B2FBC0EB001071
:1013900006EB8006A87800F0ABFB351829462046FE
:1013A00000F09DFC0026042710BB0FE00120BDE8E3
:1013B000F0810220FBE74FF4616148436978C1EB9B
:1013C000011100EB8100A9784518E7E72068416822
:1013D00021F005014160204600F02BFC411C0AD0A1
:1013E000A84208D206490144204600F064FC10B12E
:1013F00067742674DAE784F8118026740020D6E733
:101400008051010070B504000AD02068416821F0C5
:1014100008014160FEF7F2FF05464FF47A7608E0D6
:10142000012070BDFEF7EAFF401BB04201D9032046
:1014300070BD206840680007F4D5002070BD10B56D
:10144000401EB0F1807F01D3012010BD4FF0E02499
:1014500060610F21601701F04AF90020A0610720A8
:101460002061002010BDFEE701684A69D2435205A1
:101470000FD46FF480624A61002140F8301F2022AF
:1014800042738173026942F0040202610173012018
:101490007047002070470000F8B50446C06A1E4639
:1014A0000D461746082807D0012805D010F5803FC3
:1014B00002D0206B122804D12068016841F48071A9
:1014C0000160134600224FF001112046009600F003
:1014D0004DF808BB2069B0F5804F0ED0062021687A
:1014E00000EAD51040F0F000086133463A460B4957
:1014F000204600F06FF878B902E005F0FE0000E049
:10150000E8B221680861054933463A46891F2046FA
:1015100000F060F8002800D00120F8BD08000100AC
:1015200070B516460D4604460DE02046FFF79CFFB9
:1015300008B1012070BD681C05D0FEF75FFF801B5D
:10154000A84207D835B120684069C0434007ECD4B1
:10155000002070BD002044F8300F20216173A0737B
:10156000216941F0200121612073E2E72DE9F04774
:101570001E4690460D460446C1F30747DDF820900D
:1015800008E0701C06D0FEF739FFA0EB0900B0425E
:101590000FD876B12068012F18D0806925EA0000A5
:1015A0000004000C14D000214145EAD00020BDE821
:1015B000F087002044F8300F20216173A073216967
:1015C00041F02001216120730120F0E74069E5E747
:1015D0000121E9E72DE9F0479A4691460E46044677
:1015E00000254FF02008C1F3074725E02068406937
:1015F000C043400514D42068016841F400710160C3
:1016000021686FF480604861256384F83D8084F828
:101610003E50206C40F00400206484F83C501FE0F1
:10162000B9F1FF3F08D0FEF7E9FEA0EB0A014945FA
:101630000CD8B9F1000F09D02068012F13D08069B0
:1016400026EA00000004000C0BD0CFE744F8305F1E
:1016500084F80D80A573206940F020002061257377
:101660000120BDE8F0874069EAE770B516460D46EF
:1016700004460DE02046FFF7F7FE08B1012070BDDB
:10168000681C05D0FEF7BAFE801BA84207D835B10A
:1016900020684069C0430006ECD4002070BD0020E3
:1016A00044F8300F20216173A073216941F02001BB
:1016B00021612073E2E700002DE9F041AF4C0026E4
:1016C00094F9000094F9151088420BD194F90100A7
:1016D00094F91610884205D194F9020094F9171074
:1016E000884201D0A07B10B1FEF770FDA673A44D17
:1016F00028684FF00107000704D5E770267201F053
:101700003FF80AE02868400607D54FF4AF60FEF7BF
:101710006DFD2868400600D5A77398490022203146
:101720009848FFF763FC9549002223319548FFF75D
:1017300036FC92490023012228319248FFF7FCFB36
:10174000E07830B16420FEF751FDBDE8F04100F0D3
:101750006BBEC12001F05CF88BA001F099F89B20D2
:1017600001F056F88DA001F093F8844D854920359D
:10177000143195F90000607500F0D8FF94F9150058
:101780000A284FF0800005DA01F042F885A001F048
:101790007FF8812001F03CF87A48143001F078F8A5
:1017A000822001F035F880A001F072F8754995F9B2
:1017B0000100A0751E3100F0B9FF94F916000A2847
:1017C0004FF0830005DA01F023F876A001F060F80D
:1017D000842001F01DF86B481E3001F059F8852077
:1017E00001F016F870A001F053F8664995F902006F
:1017F000E075283100F09AFF94F917000A284FF09D
:10180000860005DA01F004F866A001F041F88720AF
:1018100000F0FEFF5B48283001F03AF8574D594977
:101820002335463195F90200A07600F07FFF94F948
:101830001A000A284FF08C0005DA00F0E9FF59A0E1
:1018400001F026F88D2000F0E3FF4E48463001F00D
:101850001FF88E2000F0DCFF54A001F019F8494970
:1018600095F9010060763C3100F060FF94F91900B1
:101870000A284FF08F0005DA00F0CAFF49A001F0F6
:1018800007F8902000F0C4FF3E483C3001F000F81B
:10189000912000F0BDFF45A000F0FAFF394995F90D
:1018A00003002076323100F041FF922000F0B0FFBB
:1018B0003448323000F0ECFFD42000F0A9FF3CA007
:1018C00000F0E6FF2D4D2F492835503195F90000E5
:1018D000E07600F02BFF94F91B000A284FF0DF00A0
:1018E00005DA00F095FF2FA000F0D2FFE02000F015
:1018F0008FFF2448503000F0CBFFE12000F088FF3C
:1019000029A000F0C5FF1F4995F9010020775A3141
:1019100000F00CFF94F91C000A284FF0E20005DAF1
:1019200000F076FF1FA000F0B3FFE32000F070FF8F
:1019300014485A3000F0ACFFE42000F069FF1AA010
:1019400000F0A6FF0F4995F902006077643100F0BE
:10195000EDFE94F91D000A284FF0E50005DA00F0CD
:1019600057FF10A000F094FFE62000F051FFBDE803
:10197000F0410448643000F08BBF000000000020FC
:10198000080C0140B40100204D696C6B61202620D9
:1019900054696E6B657262656C6C000046656564C7
:1019A00065720000300000003A0000002F000000C7
:1019B0004E65787420466565643A00000448816984
:1019C00041F0040181610349032008607047000071
:1019D000001002400008014070B586B000241B488A
:1019E0000094019402940394816941F01001816193
:1019F000816901F010010491816941F00401816164
:101A0000816901F004010491816941F0080181615B
:101A100080690F4E00F0080004900022012130463A
:101A2000FEF7E6FC01210225CDE9021500910191A6
:101A300069463046FEF7ECFB78208DE831006946B8
:101A40003046FEF7E5FB06B070BD00000010024016
:101A5000000C01407FB500241E48039402940094BA
:101A60001B4901940160611E41604FF480718160E7
:101A7000FFF728FB15258DF80C501E208DF80D0062
:101A80008DF80E00002203A91248FFF765FC05201F
:101A90008DF8080001208DF8090002208DF80A0059
:101AA0008DF80B50002202A90A48FFF7F3FB0A4801
:101AB000002201788DF8001041788DF801108078AF
:101AC0008DF80200694603480194FFF76FFB7FBD64
:101AD00000280040B401002000000020FEE770470D
:101AE000704700000148FFF70DBA0000B401002064
:101AF000010901EB810100F00F0000EB4100C0B2D1
:101B00007047002102E00A38C0B2491C0A28FAD204
:101B1000090740EA116070472DE9F04104460025AD
:101B2000C07B627BA37B42E0012A16D0032A14D03B
:101B3000052A12D0072A10D0082A0ED00A2A0CD063
:101B40000C2A0AD0042A10D0062A0ED0092A0CD05A
:101B50000B2A0AD0022A0DD028E01F2B0CD30C2A06
:101B600005D101221346401C20E01E2B04D3012383
:101B7000521C1BE01C2B02D203F1010316E011D111
:101B800083B29E0710D16426B3FBF6F706FB173627
:101B900036B94FF4C876B3FBF6F706FB17331BB91B
:101BA0001D2303E01D2B01D1032201236D1C8D4257
:101BB000BAD3D1B2E0736173DAB2A27300F050F815
:101BC0002073BDE8F08170B50446FEF717FC0546AA
:101BD0004FF47A7606E0FEF711FC401BB04201D9C3
:101BE000032070BD206840688006F4D520684168F5
:101BF00041F010014160002070BD000070B5044646
:101C00000068416821F010014160FEF7F7FB0546CE
:101C10004FF47A7607E000BFFEF7F0FB401BB042BE
:101C200001D9032070BD206840688006F4D50020EB
:101C300070BD0168086A496A89B241EA004070478C
:101C4000006881698AB2C1698BB2816989B28A42AE
:101C500003D0C06961F31F40704743EA02407047F8
:101C6000F0B56424C1EBC1030927A500072603EBE7
:101C700001130329B3FBF7F100F5FA6011440144A5
:101C80000AD2401EB0FBF4F201EB9001B0FBF5F07C
:101C9000891A0844001D08E0B0FBF4F201EB900142
:101CA000B0FBF5F0891A0844801CB0FBF6F106FB86
:101CB0001100C0B2F0BD70B50D4606460024FFF716
:101CC00082FF48B93168280C08623168A8B24862BE
:101CD0003046FFF793FF00B10124204670BD70B578
:101CE0000D4606460024FFF76EFF48B93168280C00
:101CF00088613168A8B2C8613046FFF77FFF00B144
:101D00000124204670BD0000FEB500F039FD42F20E
:101D10001076524C524D9CE06946E08B00F006FD77
:101D2000C42000F075FD4FA000F0B2FDE08B0A2842
:101D300008D24FF09B0000F06BFD684600F0A8FD54
:101D40009D2061E008D14FF09B0000F061FD6846E6
:101D500000F09EFD9E2046E0A0F10B01592907D21C
:101D60009B2000F055FD684600F092FD9E204BE060
:101D700064280DD0A0F1650140F2833291420FD268
:101D80009B2000F045FD684600F082FD9F203BE06F
:101D90009B2000F03DFD684600F07AFD9F2022E088
:101DA000B0F57A7F0DD0A0F2E93142F227329142AC
:101DB0000FD29B2000F02CFD684600F069FDA020AA
:101DC00022E09B2000F024FD684600F061FDA02089
:101DD00009E0B0420FD14FF09B0000F019FD6846BA
:101DE00000F056FDA12000F013FD22A000F050FDF0
:101DF00000F0C6FC0DE00CD94FF09B0000F008FD90
:101E0000684600F045FDA12000F002FD19A000F099
:101E10003FFDD42000F0FCFC17A000F039FD28683D
:101E2000C00602D5E08B0A3004E02868800602D59F
:101E3000E08B0A38E0832868400602D501206072F2
:101E400001E0607A28B100F09BFC0020E070607235
:101E50002072286840067FF55FAFFEBD00000020BD
:101E6000080C014043484F4F53452044454C4159CD
:101E70003A0000006D7300005553452055502F4423
:101E80004F574E20424F5454554E53002DE9FE43B8
:101E90002A4E4FF000094C4686F8089000F070FC7E
:101EA00006F1C008264D44E0182C09D22868C00667
:101EB00001D5641C0AE02868800607D5641E05E089
:101EC00001D1002402E0601C00D1172418F904702D
:101ED0006946384600F02AFCC12000F099FC19A0A0
:101EE00000F0D6FC0A2F4FF09D0005DA00F090FCC0
:101EF00019A000F0CDFC9E2000F08AFC684600F09E
:101F0000C7FCD42000F084FC14A000F0C1FC2868B9
:101F1000400604D50120F07286F8089001E0F07ABE
:101F200038B118F80400B0746420FEF75FF900F0CF
:101F30001FF828684006B7D5BDE8FE8300000020E2
:101F4000080C014043484F4F534520464545442027
:101F5000484F55523A0000003000000055534520CC
:101F600055502F444F574E20424F5454554E530016
:101F70002DE9FE432A4E4FF000094C4686F80890A2
:101F800000F0FEFB06F1D808264D44E03C2C09D2B7
:101F90002868C00601D5641C0AE02868800607D5B9
:101FA000641E05E001D1002402E0601C00D13B2446
:101FB00018F904706946384600F0B8FBC02000F0FC
:101FC00027FC19A000F064FC0A2F4FF09D0005DAF1
:101FD00000F01EFC19A000F05BFC9E2000F018FC35
:101FE000684600F055FCD42000F012FC14A000F06C
:101FF0004FFC2868400604D50120307386F808900D
:1020000001E0307B38B118F80400F0746420FEF76A
:10201000EDF800F01FF828684006B7D5BDE8FE834C
:1020200000000020080C014043484F4F5345204614
:10203000454544204D494E5554453A003000000076
:102040005553452055502F444F574E20424F54541E
:10205000554E53002DE9FE43364C4FF000084546DF
:1020600084F8088000F08CFB04F58A79324E5BE03E
:102070003C2D09D23068C00601D56D1C0AE03068DD
:10208000800607D56D1E05E001D1002502E0681C21
:1020900000D13B2519F905706946384600F046FB2A
:1020A000C02000F0B5FB25A000F0F2FB0A2F4FF096
:1020B0009D0005DA00F0ACFB25A000F0E9FB9E20B6
:1020C00000F0A6FB684600F0E3FBD42000F0A0FB84
:1020D00020A000F0DDFB3068400602D501206073CF
:1020E00001E0607B00B300F04BFB19F8051021758F
:1020F00084F8038084F80A8084F80B8084F80C80CC
:1021000084F80D80A27C22700A4BE07C607028333A
:10211000A1701A7058709970002219461248FFF782
:1021200045F86420FEF762F830684006A0D5BDE8A7
:10213000FE83000000000020080C014043484F4F80
:1021400053452046454544205345434F4E443A00AD
:10215000300000005553452055502F444F574E2016
:10216000424F5454554E5300B40100202DE9FE4314
:10217000284E00200446307200F002FB06F13008C1
:10218000254D42E0182C09D22868C00601D5641CF0
:102190000AE02868800607D5641E05E001D1002406
:1021A00002E0601C00D1172418F904706946384613
:1021B00000F0BCFAC42000F02BFB18A000F068FB74
:1021C0000A2F4FF09D0005DA00F022FB17A000F067
:1021D0005FFB9E2000F01CFB684600F059FBD420FA
:1021E00000F016FB12A000F053FB2868400602D551
:1021F0000120707101E0707938B118F80400F073B3
:102200006420FDF7F3FF00F01DF828684006B9D5FB
:10221000BDE8FE8300000020080C014043484F4FFA
:10222000534520484F55523A00000000300000004E
:102230005553452055502F444F574E20424F54542C
:10224000554E53002DE9FE43284E002004463072BF
:1022500000F096FA06F14808254D42E03C2C09D2E0
:102260002868C00601D5641C0AE02868800607D5E6
:10227000641E05E001D1002402E0601C00D13B2473
:1022800018F904706946384600F050FAC32000F08F
:10229000BFFA18A000F0FCFA0A2F4FF09D0005DAF3
:1022A00000F0B6FA17A000F0F3FA9E2000F0B0FAA2
:1022B000684600F0EDFAD42000F0AAFA12A000F06F
:1022C000E7FA2868400602D50120B07101E0B07934
:1022D00038B118F8040030746420FDF787FF00F06F
:1022E0001DF828684006B9D5BDE8FE83000000202F
:1022F000080C014043484F4F5345204D494E55541B
:10230000453A0000300000005553452055502F44F9
:102310004F574E20424F5454554E53002DE9FE4323
:10232000344D4FF00008444685F8088000F028FA44
:1023300005F18409304E58E03C2C09D23068C006C3
:1023400001D5641C0AE03068800607D5641E05E0EC
:1023500001D1002402E0601C00D13B2419F9047073
:102360006946384600F0E2F9C32000F051FA23A094
:1023700000F08EFA0A2F4FF09D0005DA00F048FABF
:1023800022A000F085FA9E2000F042FA684600F094
:102390007FFAD42000F03CFA1DA000F079FA3068F2
:1023A000400602D50120E87101E0E879E8B100F0CB
:1023B000E7F919F80410697485F8038085F804803A
:1023C00085F805800B4885F8068085F80780203061
:1023D000EA7B02702A7C427081700146002211481B
:1023E000FEF7BAFF6420FDF701FF30684006A3D571
:1023F000BDE8FE8300000020080C014043484F4F19
:102400005345205345434F4E443A000030000000EE
:102410005553452055502F444F574E20424F54544A
:10242000554E5300B401002070B573480168734CD9
:102430008A064FF0010101D521710AE002685206B7
:1024400001D5217203E00068C00600D5A172207991
:1024500030B16420FDF7CAFEBDE87040FFF786BECC
:10246000207A30B16420FDF7C1FEBDE87040FFF76F
:102470004BBCA07A30B16420FDF7B8FEBDE87040D7
:10248000FFF704BD5D4D5E49203595F9000060758C
:1024900000F04CF994F915000A284FF0800005DA95
:1024A00000F0B6F957A000F0F3F9812000F0B0F980
:1024B000534800F0EDF9822000F0AAF952A000F094
:1024C000E7F94F4995F90100A0750A3100F02EF99E
:1024D00094F916000A284FF0830005DA00F098F905
:1024E00048A000F0D5F9842000F092F944480A3061
:1024F00000F0CEF9852000F08BF943A000F0C8F978
:102500003F4995F90200E075143100F00FF994F994
:1025100017000A284FF0860005DA00F079F939A093
:1025200000F0B6F9872000F073F93548143000F058
:10253000AFF9324D32492335323195F90200A07698
:1025400000F0F4F894F91A000A284FF08C0005DA2C
:1025500000F05EF92BA000F09BF98D2000F058F9F7
:102560002748323000F094F98E2000F051F927A06E
:1025700000F08EF9224995F901006076283100F0CB
:10258000D5F894F919000A284FF08F0005DA00F009
:102590003FF91CA000F07CF9902000F039F91848B0
:1025A000283000F075F9912000F032F917A000F002
:1025B0006FF9134995F9030020761E3100F0B6F843
:1025C000922000F025F90E481E3000F061F9C0207D
:1025D00000F01EF90EA000F05BF9942000F018F94D
:1025E0000FA000F055F9D42000F012F9BDE87040BA
:1025F00010A000F04DB90000080C014000000020C0
:10260000C8010020300000003A0000002F00000048
:10261000444F574E3A205345542054494D450000ED
:10262000555020203A2053455420464545442054D7
:10263000494D4500454E54203A20534554204445C9
:102640004C4159007047FEF767B830B593B0282168
:102650006846FDF770FD14210AA8FDF76CFD002403
:102660000F940620012500901020CDE9045011940C
:1026700003951094129407946846FEF7B1FA0F2060
:10268000CDE90A040C940D9400210AA80E94FEF7DB
:10269000BBF92802CDE90F500FA8FEF73FF913B0A0
:1026A00030BD00000D48016841F001010160416842
:1026B0000B4A1140416001680A4A114001600168FB
:1026C00021F480210160416821F4FE0141604FF452
:1026D0001F0181600449C003086070470010024078
:1026E0000000FFF8FFFFF6FE08ED00E0FEE7090737
:1026F000090E002804DB00F1E02080F80014704788
:1027000000F00F0000F1E02080F8141D704702E097
:1027100008C8121F08C1002AFAD17047704700206C
:1027200001E001C1121F002AFBD170473EB511A480
:10273000020019CC8DE81900084603D52D2303703B
:10274000481C524213460A2493FBF4F3401C002B0E
:10275000FAD103704FEA0D0392FBF4F504FB152543
:1027600092FBF4F25D5D00F8015D002AF4D10846A9
:102770003EBD000030313233343536373839000051
:1027800010B5002000F044F80024202000F060F88C
:10279000641C642CF9DB10BD10B53220FDF726FD5A
:1027A000302000F035F80520FDF720FD302000F046
:1027B0002FF80120FDF71AFD302000F029F80A203B
:1027C000FDF714FD202000F023F80A20FDF70EFD90
:1027D000282000F01DF80120FDF708FD082000F07A
:1027E00017F80120FDF702FD012000F011F801208B
:1027F000FDF7FCFC0120FDF7F9FC062000F008F8CD
:102800000120FDF7F3FCBDE810400C20AFF3008081
:102810001CB500F0F00141F00C028DF8042041F0ED
:10282000080100018DF8051040F00C018DF806102C
:1028300040F008008DF8070064200090042301AAEE
:102840004E210248FDF79AFE1CBD000060010020E9
:102850001CB500F0F00141F00D028DF8042041F0AC
:10286000090100018DF8051040F00D018DF80610EA
:1028700040F009008DF8070064200090042301AAAD
:102880004E210248FDF77AFE1CBD000060010020C9
:1028900010B5044602E0641CFFF7DAFF2078002838
:1028A000F9D110BDFDF740FFFFF7CFFEFFF794F819
:1028B0000E480D499C2201600D4941600021C0E98C
:1028C00002124FF48042C0E904218161C1610162BA
:1028D000FDF79AFDFFF7BEF8FFF75EFFFFF76EF812
:1028E000FEF7EAFEFCE70000005400406001002013
:1028F000A0860100000000000000000001020304A7
:102900000607080900000000010203042C29000842
:102910000000002060010000700100088429000808
:1029200060010020C80400001E270008041B141EBC
:102930002D0311DC0508181601020304050607081B
:10294000090A0B0C0D0E0F1011121314151617187F
:1029500008255218191A1B1C1D1E1F202122232472
:1029600025262728292A2B2C2D2E2F30313233349F
:1029700035363738393A3B3C0976903201821013AC
:0429800024F400003B
:04000005080000ED02
:00000001FF
